{
  "_format": "hh-sol-artifact-1",
  "contractName": "FiatUSDTSwap",
  "sourceName": "contracts/FiatUSDTSwap.sol",
  "abi": [
    {
      "inputs": [
        {
          "internalType": "address",
          "name": "_usdt",
          "type": "address"
        }
      ],
      "stateMutability": "nonpayable",
      "type": "constructor"
    },
    {
      "anonymous": false,
      "inputs": [
        {
          "indexed": false,
          "internalType": "string",
          "name": "currency",
          "type": "string"
        },
        {
          "indexed": false,
          "internalType": "uint256",
          "name": "rate",
          "type": "uint256"
        },
        {
          "indexed": false,
          "internalType": "bool",
          "name": "supported",
          "type": "bool"
        }
      ],
      "name": "CurrencyUpdated",
      "type": "event"
    },
    {
      "anonymous": false,
      "inputs": [
        {
          "indexed": true,
          "internalType": "address",
          "name": "user",
          "type": "address"
        },
        {
          "indexed": false,
          "internalType": "string",
          "name": "fromCurrency",
          "type": "string"
        },
        {
          "indexed": false,
          "internalType": "string",
          "name": "toCurrency",
          "type": "string"
        },
        {
          "indexed": false,
          "internalType": "uint256",
          "name": "fromAmount",
          "type": "uint256"
        },
        {
          "indexed": false,
          "internalType": "uint256",
          "name": "toAmount",
          "type": "uint256"
        },
        {
          "indexed": false,
          "internalType": "uint256",
          "name": "gstAmount",
          "type": "uint256"
        },
        {
          "indexed": true,
          "internalType": "bytes32",
          "name": "txHash",
          "type": "bytes32"
        }
      ],
      "name": "SwapExecuted",
      "type": "event"
    },
    {
      "inputs": [],
      "name": "GST_RATE",
      "outputs": [
        {
          "internalType": "uint256",
          "name": "",
          "type": "uint256"
        }
      ],
      "stateMutability": "view",
      "type": "function"
    },
    {
      "inputs": [],
      "name": "admin",
      "outputs": [
        {
          "internalType": "address",
          "name": "",
          "type": "address"
        }
      ],
      "stateMutability": "view",
      "type": "function"
    },
    {
      "inputs": [
        {
          "internalType": "uint256",
          "name": "",
          "type": "uint256"
        }
      ],
      "name": "allSwaps",
      "outputs": [
        {
          "internalType": "address",
          "name": "user",
          "type": "address"
        },
        {
          "internalType": "string",
          "name": "fromCurrency",
          "type": "string"
        },
        {
          "internalType": "string",
          "name": "toCurrency",
          "type": "string"
        },
        {
          "internalType": "uint256",
          "name": "fromAmount",
          "type": "uint256"
        },
        {
          "internalType": "uint256",
          "name": "toAmount",
          "type": "uint256"
        },
        {
          "internalType": "uint256",
          "name": "gstAmount",
          "type": "uint256"
        },
        {
          "internalType": "uint256",
          "name": "timestamp",
          "type": "uint256"
        },
        {
          "internalType": "bytes32",
          "name": "txHash",
          "type": "bytes32"
        }
      ],
      "stateMutability": "view",
      "type": "function"
    },
    {
      "inputs": [
        {
          "internalType": "string",
          "name": "fromCurrency",
          "type": "string"
        },
        {
          "internalType": "string",
          "name": "toCurrency",
          "type": "string"
        },
        {
          "internalType": "uint256",
          "name": "fromAmount",
          "type": "uint256"
        }
      ],
      "name": "calculateSwap",
      "outputs": [
        {
          "internalType": "uint256",
          "name": "toAmount",
          "type": "uint256"
        },
        {
          "internalType": "uint256",
          "name": "gstAmount",
          "type": "uint256"
        }
      ],
      "stateMutability": "view",
      "type": "function"
    },
    {
      "inputs": [
        {
          "internalType": "string",
          "name": "",
          "type": "string"
        }
      ],
      "name": "currencyRates",
      "outputs": [
        {
          "internalType": "uint256",
          "name": "",
          "type": "uint256"
        }
      ],
      "stateMutability": "view",
      "type": "function"
    },
    {
      "inputs": [],
      "name": "getRecentSwaps",
      "outputs": [
        {
          "components": [
            {
              "internalType": "address",
              "name": "user",
              "type": "address"
            },
            {
              "internalType": "string",
              "name": "fromCurrency",
              "type": "string"
            },
            {
              "internalType": "string",
              "name": "toCurrency",
              "type": "string"
            },
            {
              "internalType": "uint256",
              "name": "fromAmount",
              "type": "uint256"
            },
            {
              "internalType": "uint256",
              "name": "toAmount",
              "type": "uint256"
            },
            {
              "internalType": "uint256",
              "name": "gstAmount",
              "type": "uint256"
            },
            {
              "internalType": "uint256",
              "name": "timestamp",
              "type": "uint256"
            },
            {
              "internalType": "bytes32",
              "name": "txHash",
              "type": "bytes32"
            }
          ],
          "internalType": "struct FiatUSDTSwap.SwapRecord[]",
          "name": "",
          "type": "tuple[]"
        }
      ],
      "stateMutability": "view",
      "type": "function"
    },
    {
      "inputs": [],
      "name": "getTotalSwaps",
      "outputs": [
        {
          "internalType": "uint256",
          "name": "",
          "type": "uint256"
        }
      ],
      "stateMutability": "view",
      "type": "function"
    },
    {
      "inputs": [
        {
          "internalType": "address",
          "name": "user",
          "type": "address"
        }
      ],
      "name": "getUserSwapHistory",
      "outputs": [
        {
          "components": [
            {
              "internalType": "address",
              "name": "user",
              "type": "address"
            },
            {
              "internalType": "string",
              "name": "fromCurrency",
              "type": "string"
            },
            {
              "internalType": "string",
              "name": "toCurrency",
              "type": "string"
            },
            {
              "internalType": "uint256",
              "name": "fromAmount",
              "type": "uint256"
            },
            {
              "internalType": "uint256",
              "name": "toAmount",
              "type": "uint256"
            },
            {
              "internalType": "uint256",
              "name": "gstAmount",
              "type": "uint256"
            },
            {
              "internalType": "uint256",
              "name": "timestamp",
              "type": "uint256"
            },
            {
              "internalType": "bytes32",
              "name": "txHash",
              "type": "bytes32"
            }
          ],
          "internalType": "struct FiatUSDTSwap.SwapRecord[]",
          "name": "",
          "type": "tuple[]"
        }
      ],
      "stateMutability": "view",
      "type": "function"
    },
    {
      "inputs": [
        {
          "internalType": "string",
          "name": "currency",
          "type": "string"
        }
      ],
      "name": "isCurrencySupported",
      "outputs": [
        {
          "internalType": "bool",
          "name": "",
          "type": "bool"
        }
      ],
      "stateMutability": "view",
      "type": "function"
    },
    {
      "inputs": [
        {
          "internalType": "bytes32",
          "name": "",
          "type": "bytes32"
        }
      ],
      "name": "processedSwaps",
      "outputs": [
        {
          "internalType": "bool",
          "name": "",
          "type": "bool"
        }
      ],
      "stateMutability": "view",
      "type": "function"
    },
    {
      "inputs": [
        {
          "internalType": "string",
          "name": "",
          "type": "string"
        }
      ],
      "name": "supportedCurrencies",
      "outputs": [
        {
          "internalType": "bool",
          "name": "",
          "type": "bool"
        }
      ],
      "stateMutability": "view",
      "type": "function"
    },
    {
      "inputs": [
        {
          "internalType": "address",
          "name": "user",
          "type": "address"
        },
        {
          "internalType": "string",
          "name": "fromCurrency",
          "type": "string"
        },
        {
          "internalType": "uint256",
          "name": "fromAmount",
          "type": "uint256"
        },
        {
          "internalType": "bytes32",
          "name": "txHash",
          "type": "bytes32"
        }
      ],
      "name": "swapFiatToUSDT",
      "outputs": [],
      "stateMutability": "nonpayable",
      "type": "function"
    },
    {
      "inputs": [
        {
          "internalType": "string",
          "name": "toCurrency",
          "type": "string"
        },
        {
          "internalType": "uint256",
          "name": "usdtAmount",
          "type": "uint256"
        },
        {
          "internalType": "bytes32",
          "name": "txHash",
          "type": "bytes32"
        }
      ],
      "name": "swapUSDTToFiat",
      "outputs": [],
      "stateMutability": "nonpayable",
      "type": "function"
    },
    {
      "inputs": [],
      "name": "totalSwaps",
      "outputs": [
        {
          "internalType": "uint256",
          "name": "",
          "type": "uint256"
        }
      ],
      "stateMutability": "view",
      "type": "function"
    },
    {
      "inputs": [
        {
          "internalType": "string",
          "name": "currency",
          "type": "string"
        },
        {
          "internalType": "uint256",
          "name": "rate",
          "type": "uint256"
        },
        {
          "internalType": "bool",
          "name": "supported",
          "type": "bool"
        }
      ],
      "name": "updateCurrency",
      "outputs": [],
      "stateMutability": "nonpayable",
      "type": "function"
    },
    {
      "inputs": [],
      "name": "usdt",
      "outputs": [
        {
          "internalType": "contract IERC20",
          "name": "",
          "type": "address"
        }
      ],
      "stateMutability": "view",
      "type": "function"
    },
    {
      "inputs": [
        {
          "internalType": "address",
          "name": "",
          "type": "address"
        },
        {
          "internalType": "uint256",
          "name": "",
          "type": "uint256"
        }
      ],
      "name": "userSwapHistory",
      "outputs": [
        {
          "internalType": "address",
          "name": "user",
          "type": "address"
        },
        {
          "internalType": "string",
          "name": "fromCurrency",
          "type": "string"
        },
        {
          "internalType": "string",
          "name": "toCurrency",
          "type": "string"
        },
        {
          "internalType": "uint256",
          "name": "fromAmount",
          "type": "uint256"
        },
        {
          "internalType": "uint256",
          "name": "toAmount",
          "type": "uint256"
        },
        {
          "internalType": "uint256",
          "name": "gstAmount",
          "type": "uint256"
        },
        {
          "internalType": "uint256",
          "name": "timestamp",
          "type": "uint256"
        },
        {
          "internalType": "bytes32",
          "name": "txHash",
          "type": "bytes32"
        }
      ],
      "stateMutability": "view",
      "type": "function"
    }
  ],
  "bytecode": "0x60c060405234801561001057600080fd5b5060405161202438038061202483398101604081905261002f916101ab565b60016000556001600160a01b03811661008e5760405162461bcd60e51b815260206004820152601460248201527f496e76616c696420555344542061646472657373000000000000000000000000604482015260640160405180910390fd5b6001600160a01b03166080523360a05260408051631554d11560e21b80825260016004808401829052845160249481900385018120805460ff1990811685179091556224a72960e91b808352600380840186905288516023948190038501812080548516881790556222aaa960e91b8082528183018890528a5191829003860182208054861689179055621554d160ea1b8083528284018990528b5192839003870183208054909616909817909455968752600294870185905288519687900390970186206305f5e10090819055948652858701849052875195869003830186209490945584528385018290528551938490038101842063057bcf0090559183529282019290925291519182900301902063053ec60090556101db565b6000602082840312156101bd57600080fd5b81516001600160a01b03811681146101d457600080fd5b9392505050565b60805160a051611e0861021c600039600081816102af015281816103120152610dbf01526000818161018201528181610489015261108f0152611e086000f3fe608060405234801561001057600080fd5b506004361061010b5760003560e01c80639cd26f8c116100a2578063bfc094ba11610071578063bfc094ba1461028e578063c6a2ec8c14610297578063f851a440146102aa578063fa8a1506146102d1578063fdec030d146102f457600080fd5b80639cd26f8c146102575780639e394f3b1461026a578063b0a8ac9b14610272578063b4a800ce1461028557600080fd5b80636063e712116100de5780636063e712146101bc57806384f3cff8146101f557806396b693c4146102085780639ac9b2341461023057600080fd5b8063051e6604146101105780630d0f70d2146101535780632ec69abc146101685780632f48ab7d1461017d575b600080fd5b61013e61011e36600461172d565b805160208183018101805160018252928201919093012091525460ff1681565b60405190151581526020015b60405180910390f35b61016661016136600461177e565b610307565b005b610170610535565b60405161014a919061182c565b6101a47f000000000000000000000000000000000000000000000000000000000000000081565b6040516001600160a01b03909116815260200161014a565b6101e76101ca36600461172d565b805160208183018101805160028252928201919093012091525481565b60405190815260200161014a565b610170610203366004611906565b6107da565b61021b610216366004611928565b6109bc565b6040805192835260208301919091520161014a565b61024361023e36600461199b565b610c46565b60405161014a9897969594939291906119b4565b610166610265366004611a28565b610db4565b6006546101e7565b610243610280366004611a83565b610ebe565b6101e760065481565b6101e761070881565b61013e6102a536600461172d565b610f0b565b6101a47f000000000000000000000000000000000000000000000000000000000000000081565b61013e6102df36600461199b565b60046020526000908152604090205460ff1681565b610166610302366004611aad565b610f36565b336001600160a01b037f000000000000000000000000000000000000000000000000000000000000000016146103715760405162461bcd60e51b815260206004820152600a60248201526927b7363c9030b236b4b760b11b60448201526064015b60405180910390fd5b61037961113b565b60008181526004602052604090205460ff16156103cc5760405162461bcd60e51b8152602060048201526011602482015270105b1c9958591e481c1c9bd8d95cdcd959607a1b6044820152606401610368565b6103f283604051806040016040528060048152602001631554d11560e21b815250611194565b156104345760405162461bcd60e51b8152602060048201526012602482015271155cd9481cddd85c1554d115151bd19a585d60721b6044820152606401610368565b60008061045e85604051806040016040528060048152602001631554d11560e21b815250866109bc565b6000858152600460205260409020805460ff1916600117905590925090506104b06001600160a01b037f00000000000000000000000000000000000000000000000000000000000000001687846111b0565b6104db8686604051806040016040528060048152602001631554d11560e21b81525087868689611213565b82866001600160a01b03167f1286e4ff981ccd0ec9eeb1bcf7171a526d0c92cb0ccad14d5a03643467f79d1d8787868660405161051b9493929190611afb565b60405180910390a3505061052f6001600055565b50505050565b6005546060906000600a821161054b578161054e565b600a5b905060008167ffffffffffffffff81111561056b5761056b611688565b6040519080825280602002602001820160405280156105f057816020015b6105dd60405180610100016040528060006001600160a01b03168152602001606081526020016060815260200160008152602001600081526020016000815260200160008152602001600080191681525090565b8152602001906001900390816105895790505b50905060005b828110156107d25760058161060c600187611b64565b6106169190611b64565b8154811061062657610626611b77565b600091825260209182902060408051610100810190915260089092020180546001600160a01b03168252600181018054929391929184019161066790611b8d565b80601f016020809104026020016040519081016040528092919081815260200182805461069390611b8d565b80156106e05780601f106106b5576101008083540402835291602001916106e0565b820191906000526020600020905b8154815290600101906020018083116106c357829003601f168201915b505050505081526020016002820180546106f990611b8d565b80601f016020809104026020016040519081016040528092919081815260200182805461072590611b8d565b80156107725780601f1061074757610100808354040283529160200191610772565b820191906000526020600020905b81548152906001019060200180831161075557829003601f168201915b50505050508152602001600382015481526020016004820154815260200160058201548152602001600682015481526020016007820154815250508282815181106107bf576107bf611b77565b60209081029190910101526001016105f6565b509392505050565b6001600160a01b0381166000908152600360209081526040808320805482518185028101850190935280835260609492939192909184015b828210156109b15760008481526020908190206040805161010081019091526008850290910180546001600160a01b03168252600181018054929391929184019161085c90611b8d565b80601f016020809104026020016040519081016040528092919081815260200182805461088890611b8d565b80156108d55780601f106108aa576101008083540402835291602001916108d5565b820191906000526020600020905b8154815290600101906020018083116108b857829003601f168201915b505050505081526020016002820180546108ee90611b8d565b80601f016020809104026020016040519081016040528092919081815260200182805461091a90611b8d565b80156109675780601f1061093c57610100808354040283529160200191610967565b820191906000526020600020905b81548152906001019060200180831161094a57829003601f168201915b505050505081526020016003820154815260200160048201548152602001600582015481526020016006820154815260200160078201548152505081526020019060010190610812565b505050509050919050565b6000806001856040516109cf9190611bc7565b9081526040519081900360200190205460ff16610a2e5760405162461bcd60e51b815260206004820152601960248201527f556e737570706f727465642066726f6d2063757272656e6379000000000000006044820152606401610368565b600184604051610a3e9190611bc7565b9081526040519081900360200190205460ff16610a9d5760405162461bcd60e51b815260206004820152601760248201527f556e737570706f7274656420746f2063757272656e63790000000000000000006044820152606401610368565b60008311610ade5760405162461bcd60e51b815260206004820152600e60248201526d125b9d985b1a5908185b5bdd5b9d60921b6044820152606401610368565b6000600286604051610af09190611bc7565b90815260200160405180910390205490506000600286604051610b139190611bc7565b90815260200160405180910390205490506000610b4c88604051806040016040528060048152602001631554d11560e21b815250611194565b610b6e5782610b5f876305f5e100611be3565b610b699190611bfa565b610b70565b855b9050610b97886040518060400160405280600381526020016224a72960e91b815250611194565b80610bc25750610bc2876040518060400160405280600381526020016224a72960e91b815250611194565b15610bef57612710610bd661070883611be3565b610be09190611bfa565b9350610bec8482611b64565b90505b610c1587604051806040016040528060048152602001631554d11560e21b815250611194565b610c37576305f5e100610c288383611be3565b610c329190611bfa565b610c39565b805b9450505050935093915050565b60058181548110610c5657600080fd5b6000918252602090912060089091020180546001820180546001600160a01b03909216935090610c8590611b8d565b80601f0160208091040260200160405190810160405280929190818152602001828054610cb190611b8d565b8015610cfe5780601f10610cd357610100808354040283529160200191610cfe565b820191906000526020600020905b815481529060010190602001808311610ce157829003601f168201915b505050505090806002018054610d1390611b8d565b80601f0160208091040260200160405190810160405280929190818152602001828054610d3f90611b8d565b8015610d8c5780601f10610d6157610100808354040283529160200191610d8c565b820191906000526020600020905b815481529060010190602001808311610d6f57829003601f168201915b5050505050908060030154908060040154908060050154908060060154908060070154905088565b336001600160a01b037f00000000000000000000000000000000000000000000000000000000000000001614610e195760405162461bcd60e51b815260206004820152600a60248201526927b7363c9030b236b4b760b11b6044820152606401610368565b80600184604051610e2a9190611bc7565b908152604051908190036020019020805491151560ff19909216919091179055808015610e575750600082115b15610e7e5781600284604051610e6d9190611bc7565b908152604051908190036020019020555b7f2697affd8534dd3a3311a37e25fd5eb91a05cfeb40cd75546b5c73a93c445aed838383604051610eb193929190611c1c565b60405180910390a1505050565b60036020528160005260406000208181548110610eda57600080fd5b6000918252602090912060089091020180546001820180546001600160a01b039092169450919250610c8590611b8d565b6000600182604051610f1d9190611bc7565b9081526040519081900360200190205460ff1692915050565b610f3e61113b565b60008181526004602052604090205460ff1615610f915760405162461bcd60e51b8152602060048201526011602482015270105b1c9958591e481c1c9bd8d95cdcd959607a1b6044820152606401610368565b610fb783604051806040016040528060048152602001631554d11560e21b815250611194565b15610ff95760405162461bcd60e51b8152602060048201526012602482015271155cd9481cddd85c119a585d151bd554d11560721b6044820152606401610368565b6000821161103a5760405162461bcd60e51b815260206004820152600e60248201526d125b9d985b1a5908185b5bdd5b9d60921b6044820152606401610368565b600080611064604051806040016040528060048152602001631554d11560e21b81525086866109bc565b6000858152600460205260409020805460ff1916600117905590925090506110b76001600160a01b037f0000000000000000000000000000000000000000000000000000000000000000163330876113eb565b6110e233604051806040016040528060048152602001631554d11560e21b8152508787868689611213565b82336001600160a01b03167f1286e4ff981ccd0ec9eeb1bcf7171a526d0c92cb0ccad14d5a03643467f79d1d878786866040516111229493929190611c46565b60405180910390a350506111366001600055565b505050565b60026000540361118d5760405162461bcd60e51b815260206004820152601f60248201527f5265656e7472616e637947756172643a207265656e7472616e742063616c6c006044820152606401610368565b6002600055565b6000818051906020012083805190602001201490505b92915050565b6040516001600160a01b03831660248201526044810182905261113690849063a9059cbb60e01b906064015b60408051601f198184030181529190526020810180516001600160e01b03166001600160e01b031990931692909217909152611423565b60408051610100810182526001600160a01b0389811680835260208084018b81528486018b9052606085018a90526080850189905260a085018890524260c086015260e0850187905260009283526003825294822080546001808201835591845291909220845160089092020180546001600160a01b03191691909316178255925191928392908201906112a79082611cca565b50604082015160028201906112bc9082611cca565b50606082015160038201556080820151600482015560a082015160058083019190915560c0830151600683015560e090920151600790910155805460018101825560009190915281517f036b6384b5eca791c62761152d0c79bb0604c104a5fb6f4eb0703f3154bb3db0600890920291820180546001600160a01b0319166001600160a01b03909216919091178155602083015183927f036b6384b5eca791c62761152d0c79bb0604c104a5fb6f4eb0703f3154bb3db1019061137f9082611cca565b50604082015160028201906113949082611cca565b50606082015181600301556080820151816004015560a0820151816005015560c0820151816006015560e082015181600701555050600660008154809291906113dc90611d89565b91905055505050505050505050565b6040516001600160a01b038085166024830152831660448201526064810182905261052f9085906323b872dd60e01b906084016111dc565b6000611478826040518060400160405280602081526020017f5361666545524332303a206c6f772d6c6576656c2063616c6c206661696c6564815250856001600160a01b03166114f89092919063ffffffff16565b90508051600014806114995750808060200190518101906114999190611da2565b6111365760405162461bcd60e51b815260206004820152602a60248201527f5361666545524332303a204552433230206f7065726174696f6e20646964206e6044820152691bdd081cdd58d8d9595960b21b6064820152608401610368565b6060611507848460008561150f565b949350505050565b6060824710156115705760405162461bcd60e51b815260206004820152602660248201527f416464726573733a20696e73756666696369656e742062616c616e636520666f6044820152651c8818d85b1b60d21b6064820152608401610368565b600080866001600160a01b0316858760405161158c9190611bc7565b60006040518083038185875af1925050503d80600081146115c9576040519150601f19603f3d011682016040523d82523d6000602084013e6115ce565b606091505b50915091506115df878383876115ea565b979650505050505050565b60608315611659578251600003611652576001600160a01b0385163b6116525760405162461bcd60e51b815260206004820152601d60248201527f416464726573733a2063616c6c20746f206e6f6e2d636f6e74726163740000006044820152606401610368565b5081611507565b611507838381511561166e5781518083602001fd5b8060405162461bcd60e51b81526004016103689190611dbf565b634e487b7160e01b600052604160045260246000fd5b600082601f8301126116af57600080fd5b813567ffffffffffffffff8111156116c9576116c9611688565b604051601f8201601f19908116603f0116810167ffffffffffffffff811182821017156116f8576116f8611688565b60405281815283820160200185101561171057600080fd5b816020850160208301376000918101602001919091529392505050565b60006020828403121561173f57600080fd5b813567ffffffffffffffff81111561175657600080fd5b6115078482850161169e565b80356001600160a01b038116811461177957600080fd5b919050565b6000806000806080858703121561179457600080fd5b61179d85611762565b9350602085013567ffffffffffffffff8111156117b957600080fd5b6117c58782880161169e565b949794965050505060408301359260600135919050565b60005b838110156117f75781810151838201526020016117df565b50506000910152565b600081518084526118188160208601602086016117dc565b601f01601f19169290920160200192915050565b6000602082016020835280845180835260408501915060408160051b86010192506020860160005b828110156118fa57868503603f19018452815180516001600160a01b031686526020808201516101009188018290529061189090880182611800565b9050604082015187820360408901526118a98282611800565b915050606082015160608801526080820151608088015260a082015160a088015260c082015160c088015260e082015160e08801528096505050602082019150602084019350600181019050611854565b50929695505050505050565b60006020828403121561191857600080fd5b61192182611762565b9392505050565b60008060006060848603121561193d57600080fd5b833567ffffffffffffffff81111561195457600080fd5b6119608682870161169e565b935050602084013567ffffffffffffffff81111561197d57600080fd5b6119898682870161169e565b93969395505050506040919091013590565b6000602082840312156119ad57600080fd5b5035919050565b6001600160a01b0389168152610100602082018190526000906119d99083018a611800565b82810360408401526119eb818a611800565b60608401989098525050608081019490945260a084019290925260c083015260e0909101529392505050565b8015158114611a2557600080fd5b50565b600080600060608486031215611a3d57600080fd5b833567ffffffffffffffff811115611a5457600080fd5b611a608682870161169e565b935050602084013591506040840135611a7881611a17565b809150509250925092565b60008060408385031215611a9657600080fd5b611a9f83611762565b946020939093013593505050565b600080600060608486031215611ac257600080fd5b833567ffffffffffffffff811115611ad957600080fd5b611ae58682870161169e565b9660208601359650604090950135949350505050565b60a081526000611b0e60a0830187611800565b8281036020840152611b318160048152631554d11560e21b602082015260400190565b604084019690965250506060810192909252608090910152919050565b634e487b7160e01b600052601160045260246000fd5b818103818111156111aa576111aa611b4e565b634e487b7160e01b600052603260045260246000fd5b600181811c90821680611ba157607f821691505b602082108103611bc157634e487b7160e01b600052602260045260246000fd5b50919050565b60008251611bd98184602087016117dc565b9190910192915050565b80820281158282048414176111aa576111aa611b4e565b600082611c1757634e487b7160e01b600052601260045260246000fd5b500490565b606081526000611c2f6060830186611800565b602083019490945250901515604090910152919050565b60a081526000611c6a60a0830160048152631554d11560e21b602082015260400190565b8281036020840152611b318188611800565b601f82111561113657806000526020600020601f840160051c81016020851015611ca35750805b601f840160051c820191505b81811015611cc35760008155600101611caf565b5050505050565b815167ffffffffffffffff811115611ce457611ce4611688565b611cf881611cf28454611b8d565b84611c7c565b6020601f821160018114611d2c5760008315611d145750848201515b600019600385901b1c1916600184901b178455611cc3565b600084815260208120601f198516915b82811015611d5c5787850151825560209485019460019092019101611d3c565b5084821015611d7a5786840151600019600387901b60f8161c191681555b50505050600190811b01905550565b600060018201611d9b57611d9b611b4e565b5060010190565b600060208284031215611db457600080fd5b815161192181611a17565b602081526000611921602083018461180056fea26469706673582212200388ba3c9dca4799544f974ede0280be26bdd6f168b985e915dd4ae38106bfa264736f6c634300081b0033",
  "linkReferences": {},
  "deployedLinkReferences": {}
}