{
  "_format": "hh-sol-artifact-1",
  "contractName": "MockUSDT",
  "sourceName": "contracts/MockUSDT.sol",
  "abi": [
    {
      "inputs": [
        {
          "internalType": "address",
          "name": "",
          "type": "address"
        },
        {
          "internalType": "address",
          "name": "",
          "type": "address"
        }
      ],
      "name": "allowance",
      "outputs": [
        {
          "internalType": "uint256",
          "name": "",
          "type": "uint256"
        }
      ],
      "stateMutability": "view",
      "type": "function"
    },
    {
      "inputs": [
        {
          "internalType": "address",
          "name": "spender",
          "type": "address"
        },
        {
          "internalType": "uint256",
          "name": "amount",
          "type": "uint256"
        }
      ],
      "name": "approve",
      "outputs": [
        {
          "internalType": "bool",
          "name": "",
          "type": "bool"
        }
      ],
      "stateMutability": "nonpayable",
      "type": "function"
    },
    {
      "inputs": [
        {
          "internalType": "address",
          "name": "",
          "type": "address"
        }
      ],
      "name": "balanceOf",
      "outputs": [
        {
          "internalType": "uint256",
          "name": "",
          "type": "uint256"
        }
      ],
      "stateMutability": "view",
      "type": "function"
    },
    {
      "inputs": [],
      "name": "decimals",
      "outputs": [
        {
          "internalType": "uint8",
          "name": "",
          "type": "uint8"
        }
      ],
      "stateMutability": "view",
      "type": "function"
    },
    {
      "inputs": [
        {
          "internalType": "address",
          "name": "to",
          "type": "address"
        },
        {
          "internalType": "uint256",
          "name": "amount",
          "type": "uint256"
        }
      ],
      "name": "mint",
      "outputs": [],
      "stateMutability": "nonpayable",
      "type": "function"
    },
    {
      "inputs": [],
      "name": "name",
      "outputs": [
        {
          "internalType": "string",
          "name": "",
          "type": "string"
        }
      ],
      "stateMutability": "view",
      "type": "function"
    },
    {
      "inputs": [],
      "name": "symbol",
      "outputs": [
        {
          "internalType": "string",
          "name": "",
          "type": "string"
        }
      ],
      "stateMutability": "view",
      "type": "function"
    },
    {
      "inputs": [
        {
          "internalType": "address",
          "name": "to",
          "type": "address"
        },
        {
          "internalType": "uint256",
          "name": "amount",
          "type": "uint256"
        }
      ],
      "name": "transfer",
      "outputs": [
        {
          "internalType": "bool",
          "name": "",
          "type": "bool"
        }
      ],
      "stateMutability": "nonpayable",
      "type": "function"
    },
    {
      "inputs": [
        {
          "internalType": "address",
          "name": "from",
          "type": "address"
        },
        {
          "internalType": "address",
          "name": "to",
          "type": "address"
        },
        {
          "internalType": "uint256",
          "name": "amount",
          "type": "uint256"
        }
      ],
      "name": "transferFrom",
      "outputs": [
        {
          "internalType": "bool",
          "name": "",
          "type": "bool"
        }
      ],
      "stateMutability": "nonpayable",
      "type": "function"
    }
  ],
  "bytecode": "0x6002805460ff1916600617905560c06040526009608090815268135bd8dac81554d11560ba1b60a052600390610035908261010f565b50604080518082019091526004808252631554d11560e21b60208301529061005d908261010f565b5034801561006a57600080fd5b506101cd565b634e487b7160e01b600052604160045260246000fd5b600181811c9082168061009a57607f821691505b6020821081036100ba57634e487b7160e01b600052602260045260246000fd5b50919050565b601f82111561010a57806000526020600020601f840160051c810160208510156100e75750805b601f840160051c820191505b8181101561010757600081556001016100f3565b50505b505050565b81516001600160401b0381111561012857610128610070565b61013c816101368454610086565b846100c0565b6020601f82116001811461017057600083156101585750848201515b600019600385901b1c1916600184901b178455610107565b600084815260208120601f198516915b828110156101a05787850151825560209485019460019092019101610180565b50848210156101be5786840151600019600387901b60f8161c191681555b50505050600190811b01905550565b61067c806101dc6000396000f3fe608060405234801561001057600080fd5b50600436106100935760003560e01c806340c10f191161006657806340c10f191461010b57806370a082311461012057806395d89b411461014e578063a9059cbb14610156578063dd62ed3e1461016957600080fd5b806306fdde0314610098578063095ea7b3146100b657806323b872dd146100d9578063313ce567146100ec575b600080fd5b6100a0610194565b6040516100ad91906104aa565b60405180910390f35b6100c96100c4366004610514565b610222565b60405190151581526020016100ad565b6100c96100e736600461053e565b610250565b6002546100f99060ff1681565b60405160ff90911681526020016100ad565b61011e610119366004610514565b6103bc565b005b61014061012e36600461057b565b60006020819052908152604090205481565b6040519081526020016100ad565b6100a06103ed565b6100c9610164366004610514565b6103fa565b61014061017736600461059d565b600160209081526000928352604080842090915290825290205481565b600380546101a1906105d0565b80601f01602080910402602001604051908101604052809291908181526020018280546101cd906105d0565b801561021a5780601f106101ef5761010080835404028352916020019161021a565b820191906000526020600020905b8154815290600101906020018083116101fd57829003601f168201915b505050505081565b3360009081526001602081815260408084206001600160a01b03871685529091529091208290555b92915050565b6001600160a01b0383166000908152602081905260408120548211156102b45760405162461bcd60e51b8152602060048201526014602482015273496e73756666696369656e742062616c616e636560601b60448201526064015b60405180910390fd5b6001600160a01b03841660009081526001602090815260408083203384529091529020548211156103205760405162461bcd60e51b8152602060048201526016602482015275496e73756666696369656e7420616c6c6f77616e636560501b60448201526064016102ab565b6001600160a01b03841660009081526020819052604081208054849290610348908490610620565b90915550506001600160a01b03831660009081526020819052604081208054849290610375908490610633565b90915550506001600160a01b0384166000908152600160209081526040808320338452909152812080548492906103ad908490610620565b90915550600195945050505050565b6001600160a01b038216600090815260208190526040812080548392906103e4908490610633565b90915550505050565b600480546101a1906105d0565b336000908152602081905260408120548211156104505760405162461bcd60e51b8152602060048201526014602482015273496e73756666696369656e742062616c616e636560601b60448201526064016102ab565b336000908152602081905260408120805484929061046f908490610620565b90915550506001600160a01b0383166000908152602081905260408120805484929061049c908490610633565b909155506001949350505050565b602081526000825180602084015260005b818110156104d857602081860181015160408684010152016104bb565b506000604082850101526040601f19601f83011684010191505092915050565b80356001600160a01b038116811461050f57600080fd5b919050565b6000806040838503121561052757600080fd5b610530836104f8565b946020939093013593505050565b60008060006060848603121561055357600080fd5b61055c846104f8565b925061056a602085016104f8565b929592945050506040919091013590565b60006020828403121561058d57600080fd5b610596826104f8565b9392505050565b600080604083850312156105b057600080fd5b6105b9836104f8565b91506105c7602084016104f8565b90509250929050565b600181811c908216806105e457607f821691505b60208210810361060457634e487b7160e01b600052602260045260246000fd5b50919050565b634e487b7160e01b600052601160045260246000fd5b8181038181111561024a5761024a61060a565b8082018082111561024a5761024a61060a56fea2646970667358221220a76e56576e9535f214a2060023df04d4e1c79d7d0a0159fcdc165b4210440d9064736f6c634300081b0033",
  "linkReferences": {},
  "deployedLinkReferences": {}
}